:100000001AC429C4ACC427C426C425C424C423C428
:1000100022C421C44AC41FC41EC41DC41CC424005D
:1000200024002400240024002500250025002500AC
:10003000250026002600260026002600270027008F
:100040002700270027002800280028002800290072
:1000500029002900290029002A002A002A002A0054
:100060002B002B002B002B002C002C002C002C0034
:100070002D002D002D002D002D002E002E002E0015
:100080002E002F002F002F003000300030003000F5
:1000900031003100310031003200320032003200D4
:1000A00033003300330034003400340034003500B2
:1000B0003500350036003600360036003700370090
:1000C00037003800380038003900390039003A006C
:1000D0003A003A003B003B003B003B003C003C0048
:1000E0003C003D003D003D003E003E003E003F0024
:1000F0003F003F00400040004100410041004200FD
:1001000042004200430043004300440044004500D5
:1001100045004500460046004600470047004800AD
:1001200048004800490049004A004A004A004B0084
:100130004B004C004C004C004D004D004E004E005A
:100140004F004F004F00500050005100510052002E
:100150005200520053005300540054005500550003
:1001600056005600570057005800580059005900D3
:100170005A005A005A005B005B005C005C005D00A6
:100180005D005E005F005F00600060006100610074
:100190006200620063006300640064006500650043
:1001A00066006700670068006800690069006A000F
:1001B0006B006B006C006C006D006D006E006F00DA
:1001C0006F007000700071007200720073007400A4
:1001D000740075007600760077007700780079006B
:1001E00079007A007B007B007C007D007D007E0032
:1001F0007F007F00800081008200820083008400F5
:1002000084008500860087008700880089008A00B6
:100210008A008B008C008D008D008E008F00900076
:100220009000910092009300940094009500960035
:1002300097009800990099009A009B009C009D00EF
:100240009E009E009F00A000A100A200A300A400A9
:10025000A500A500A600A700A800A900AA00AB0061
:10026000AC00AD00AE00AF00B000B100B200B30012
:10027000B400B400B500B600B700B800B900BA00C9
:10028000BB00BD00BE00BF00C000C100C200C30073
:10029000C400C500C600C700C800C900CA00CB0022
:1002A000CD00CE00CF00D000D100D200D300D400CA
:1002B000D600D700D800D900DA00DB00DD00DE0070
:1002C000DF00E000E100E300E400E500E600E80014
:1002D000E900EA00EC00ED00EE00EF00F100F200B2
:1002E000F300F500F600F700F900FA00FB00FD004E
:1002F000FE00FF00010102010401050106010801E1
:1003000009010B010C010E010F0111011201140171
:100310001501170118011A011B011D011E01200101
:100320002101230125012601280129012B012D018D
:100330002E013001320133013501370138013A0114
:100340003C013D013F014101430144014601480197
:100350004A014B014D014F01510153015501560115
:1003600058015A015C015E0160016201640166018D
:10037000680169016B016D016F0171017301750104
:1003800077017A017C017E0180018201840186016E
:1003900088018A018C018F019101930195019701D8
:1003A0009A019C019E01A001A201A501A701A9013A
:1003B000AC01AE01B001B301B501B701BA01BC0196
:1003C000BF01C101C301C601C801CB01CD01D001EC
:1003D000D201D501D801DA01DD01DF01E201E4013A
:1003E000E701EA01EC01EF01F201F401F701FA0182
:1003F000FD01FF010202050208020B020D021002BC
:100400001302160219021C021F02220225022802F0
:100410002B022E023102340237023A023D02400220
:10042000430246024A024D025002530256025A0249
:100430005D026002640267026A026E027102740267
:1004400078027B027F028202860289028D0290027C
:10045000940297029B029F02A202A602AA02AD0288
:10046000B102B502B902BC02C002C402C802CC0289
:10047000D002D302D702DB02DF02E302E702EB0283
:10048000EF02F402F802FC020003040308030D0368
:100490001103150319031E03220326032B032F0345
:1004A000340338033C03410345034A034F0353031A
:1004B00058035C03610366036B036F0374037903E2
:1004C0007E03830387038C03910396039B03A0039E
:1004D000A503AA03B003B503BA03BF03C403C9034A
:1004E000CF03D403D903DF03E403E903EF03F403E9
:1004F000FA03FF0305040B04100416041B04210473
:1005000027042D04330438043E0444044A045004F0
:1005100056045C04620468046E0475047B04810460
:1005200087048D0494049A04A104A704AD04B404C0
:10053000BB04C104C804CE04D504DC04E304E9040C
:10054000F004F704FE0405050C0513051A05210542
:1005500028052F0537053E0545054C0554055B0567
:1005600063056A057205790581058805900598057A
:10057000A005A705AF05B705BF05C705CF05D7057A
:10058000DF05E805F005F8050006090611061A065C
:1005900022062B0633063C0644064D0656065F0629
:1005A00068067006790682068B0695069E06A706E3
:1005B000B006B906C306CC06D606DF06E906F20683
:1005C000FC0606070F07190723072D073707410702
:1005D0004B07550760076A0774077E07890793076B
:1005E0009E07A807B307BE07C907D307DE07E907B9
:1005F000F407FF070A08160821082C0837084308E3
:100600004E085A08660871087D0889089508A108EF
:10061000AD08B908C508D108DD08EA08F6080209DE
:100620000F091B092809350942094F095B096909A6
:100630007609830990099D09AB09B809C609D30950
:10064000E109EF09FC090A0A180A260A340A430AD2
:10065000510A5F0A6E0A7C0A8B0A990AA80AB70A2D
:10066000C60AD50AE40AF30A020B110B210B300B60
:10067000400B4F0B5F0B6F0B7F0B8F0B9F0BAF0B69
:10068000BF0BD00BE00BF10B010C120C230C340C44
:10069000450C560C670C780C890C9B0CAC0CBE0CF2
:1006A000D00CE10CF30C050D170D2A0D3C0D4E0D71
:1006B000610D730D860D990DAC0DBF0DD20DE50DBD
:1006C000F80D0C0E1F0E330E470E5B0E6F0E830ED1
:1006D000970EAB0EC00ED40EE90EFD0E120F270FB3
:1006E0003C0F510F670F7C0F920FA70FBD0FD30F59
:1006F000E90FFF0F15102C10421059106F108610C3
:100700009D10B410CC10E310FA1012112A114211EE
:100710005A1172118A11A211BB11D411EC110512D8
:100720001E12371251126A1284129E12B712D2127E
:10073000EC12061320133B13561371138C13A713DB
:10074000C213DE13F913151431144D1469148614F1
:10075000A214BF14DC14F9141615331551156E15B7
:100760008C15AA15C815E61505162316421661162E
:1007700080169F16BF16DF16FE161E173E175F1750
:100780007F17A017C117E217031824184618681816
:100790008A18AC18CE18F0181319361959197C1983
:1007A000A019C319E7190B1A2F1A541A781A9D1A8F
:1007B000C21AE71A0D1B321B581B7E1BA41BCB1B36
:1007C000F11B181C3F1C671C8E1CB61CDE1C061D72
:1007D0002E1D571D801DA91DD21DFB1D251E4F1E40
:1007E000791EA31ECE1EF91E241F4F1F7B1FA61F9E
:1007F000D21FFF1F2B2058208520B220DF200D2183
:100800003B2169219821C621F521252254228422E9
:10081000B422E422142345237623A823D9230000FD
:10082000000038000000000037000202020202024D
:1008300001020408102011241FBECFE5D2E0DEBF64
:10084000CDBF20E0A0E6B0E001C01D92AB36B207FC
:10085000E1F796D0EDC0D4CB8F7787B987B187B950
:10086000369A3699FECF84B195B1089590E0FC0197
:10087000E05DF74F2491865D974FFC0184918823BA
:1008800099F090E0880F991FFC01EC5DF74FA5915E
:10089000B491FC01E25EF74F859194918FB7F89483
:1008A000EC91E22BEC938FBF08951F920F920FB63D
:1008B0000F9211242F933F938F939F938091670002
:1008C000909168002091640030916500820F931F21
:1008D000909365008093640097FF39C0C09A80911F
:1008E00066008823B1F180916200909163008F3F90
:1008F000910509F008F48EBD80916000882371F0A5
:100900008091620090916300892B41F4809169008D
:1009100090916A009093630080936200109260004F
:1009200080916200909163000097B1F001979093DD
:100930006300809362008FEF809361009F918F919D
:100940003F912F910F900FBE0F901F901895C09858
:10095000C6CF80916100CFCF10926100EFCF1F9280
:100960000F920FB60F9211248F93B29B03C081E0B8
:10097000809360008F910F900FBE0F901F9018957D
:1009800083E08ABD83BF789480E48CBD8FEF8DBDFA
:1009900087EC80BF87E886B981E068DF80E066DFAA
:1009A00087B5826087BD8BE891E00197F1F707B4C6
:1009B00000FEFDCF87B5846087BD10BE1FBC82E0FE
:1009C0008CBD91E690BF9FEF9DBDAA9A9BB79062A8
:1009D0009BBF13BE12BE8ABD83BF87E289BD89B7A4
:1009E000806189BF7894CFEFD3E083E835DF9E0143
:1009F000281B390BC901836090936A0080936900BA
:100A000082E82ADFFC01E360EE0FFF1FE25EFF4F8A
:100A100085919491909368008093670080E81CDF33
:100A200021E0813093400CF420E020936600DDCF7C
:040A3000F894FFCF68
:00000001FF
